:100000000C942A000C9434000C9434000C943400AA
:100010000C9434000C9434000C9434000C94340090
:100020000C9434000C9434000C9434000C94340080
:100030000C9434000C9434000C9434000C94340070
:100040000C9434000C9434000C9434000C94340060
:100050000C94340011241FBECFE5D8E0DEBFCDBF25
:100060000E9446010C9462010C9400008EEF85BB47
:100070009C9908C08FE493EC0197F1F700C0000051
:1000800087E308959D9908C08FE493EC0197F1F7F9
:1000900000C0000088E308959E9908C08FE493ECA7
:1000A0000197F1F700C0000089E308959F9908C007
:1000B0008FE493EC0197F1F700C000008FE2089500
:1000C0008DEF85BB9C9908C08FE493EC0197F1F705
:1000D00000C0000084E308959D9908C08FE493EC6C
:1000E0000197F1F700C0000085E308959E9908C0CC
:1000F0008FE493EC0197F1F700C0000086E30895C8
:100100009F9908C08FE493EC0197F1F700C00000BD
:100110008AE208958BEF85BB9C9908C08FE493EC2D
:100120000197F1F700C0000081E308959D9908C090
:100130008FE493EC0197F1F700C0000082E308958B
:100140009E9908C08FE493EC0197F1F700C000007E
:1001500083E308959F9908C08FE493EC0197F1F72A
:1001600000C000008DE2089587EF85BB9C9908C010
:100170008FE493EC0197F1F700C0000083E6089547
:100180009D9908C08FE493EC0197F1F700C000003F
:1001900080E308959E9908C08FE493EC0197F1F7EE
:1001A00000C000008DE308959F9908C08FE493EC90
:1001B0000197F1F700C000008BE2089580E00895F8
:1001C00092B3907292BB92B39F7B92BB982F907F19
:1001D0009BBB92B3906892BBE9EFF0E03197F1F7E7
:1001E00000C0000092B39F7792BB8295807F8BBB4B
:1001F00082B3806882BB89EF90E00197F1F700C07D
:10020000000082B38F7782BB089592B3906292BB55
:1002100092B39F7B92BB982F907F9BBB92B39068C9
:1002200092BBE9EFF0E03197F1F700C0000092B324
:100230009F7792BB8295807F8BBB82B3806882BBA5
:1002400089EF90E00197F1F700C0000082B38F774B
:1002500082BB08958FEF8ABB81BB82B38F7782BB4D
:1002600083E30E94E00082E30E94E00088E20E94B3
:10027000E0008EE00E94E00081E00E94E00083EF59
:1002800091E00197F1F700C0000008958FE084BB72
:1002900089EF90E00197F1F700C0000080EF85BB87
:1002A0000E942A0180EF85BB89E698E10197F1F76A
:1002B00000C0000083B3803FA9F30E9436000E9473
:0802C0000501F0CFF894FFCF17
:00000001FF
